{
  "contractName": "Payments",
  "abi": [
    {
      "anonymous": false,
      "inputs": [
        {
          "indexed": false,
          "internalType": "address",
          "name": "sender",
          "type": "address"
        },
        {
          "indexed": false,
          "internalType": "address",
          "name": "receiver",
          "type": "address"
        },
        {
          "indexed": false,
          "internalType": "uint256",
          "name": "amount",
          "type": "uint256"
        }
      ],
      "name": "Transferred",
      "type": "event"
    },
    {
      "inputs": [
        {
          "internalType": "address payable",
          "name": "_to",
          "type": "address"
        }
      ],
      "name": "sendOut",
      "outputs": [],
      "stateMutability": "payable",
      "type": "function",
      "payable": true
    }
  ],
  "bytecode": "0x608060405234801561001057600080fd5b5061041d806100206000396000f3fe60806040526004361061001e5760003560e01c806342241be814610023575b600080fd5b61003d600480360381019061003891906101db565b61003f565b005b600073ffffffffffffffffffffffffffffffffffffffff168173ffffffffffffffffffffffffffffffffffffffff1614156100af576040517f08c379a00000000000000000000000000000000000000000000000000000000081526004016100a690610265565b60405180910390fd5b60003414156100f3576040517f08c379a00000000000000000000000000000000000000000000000000000000081526004016100ea906102f7565b60405180910390fd5b8073ffffffffffffffffffffffffffffffffffffffff166108fc349081150290604051600060405180830381858888f19350505050158015610139573d6000803e3d6000fd5b507fd1ba4ac2e2a11b5101f6cb4d978f514a155b421e8ec396d2d9abaf0bb02917ee33823460405161016d939291906103b0565b60405180910390a150565b600080fd5b600073ffffffffffffffffffffffffffffffffffffffff82169050919050565b60006101a88261017d565b9050919050565b6101b88161019d565b81146101c357600080fd5b50565b6000813590506101d5816101af565b92915050565b6000602082840312156101f1576101f0610178565b5b60006101ff848285016101c6565b91505092915050565b600082825260208201905092915050565b7f616464726573732073686f756c64206e6f74206265206e756c6c000000000000600082015250565b600061024f601a83610208565b915061025a82610219565b602082019050919050565b6000602082019050818103600083015261027e81610242565b9050919050565b7f76616c75652073686f756c642062652067726561746572207468616e206e756c60008201527f6c00000000000000000000000000000000000000000000000000000000000000602082015250565b60006102e1602183610208565b91506102ec82610285565b604082019050919050565b60006020820190508181036000830152610310816102d4565b9050919050565b60006103228261017d565b9050919050565b61033281610317565b82525050565b6000819050919050565b600061035d6103586103538461017d565b610338565b61017d565b9050919050565b600061036f82610342565b9050919050565b600061038182610364565b9050919050565b61039181610376565b82525050565b6000819050919050565b6103aa81610397565b82525050565b60006060820190506103c56000830186610329565b6103d26020830185610388565b6103df60408301846103a1565b94935050505056fea26469706673582212200c09f2fd20cf276ad257a7b4f5189916a4180d01d952fde195fb9cbda7bbcbf364736f6c634300080b0033",
  "immutableReferences": {},
  "source": "// SPDX-License-Identifier: MIT\npragma solidity ^0.8.11;\n\ncontract Payments {\n    event Transferred(address sender, address receiver, uint256 amount);\n\n    function sendOut(address payable _to) external payable {\n        require(_to != address(0), \"address should not be null\");\n        require(msg.value != 0, \"value should be greater than null\");\n        _to.transfer(msg.value);\n\n        emit Transferred(msg.sender, _to, msg.value);\n    }\n}\n",
  "sourcePath": "/Users/laksh/Documents/Projects/Tutorials/polygon-academy/starter-kits/src/contracts/Payment.sol",
  "compiler": {
    "name": "solc",
    "version": "0.8.11+commit.d7f03943.Emscripten.clang"
  },
  "schemaVersion": "3.4.5",
  "updatedAt": "2022-03-01T18:42:24.298Z",
  "networkType": "ethereum",
  "devdoc": {
    "kind": "dev",
    "methods": {},
    "version": 1
  },
  "userdoc": {
    "kind": "user",
    "methods": {},
    "version": 1
  }
}